{
  "contractName": "DappToken",
  "abi": [
    {
      "constant": true,
      "inputs": [],
      "name": "totalSupply",
      "outputs": [
        {
          "name": "",
          "type": "uint256"
        }
      ],
      "payable": false,
      "stateMutability": "view",
      "type": "function"
    },
    {
      "inputs": [
        {
          "name": "_initialSupply",
          "type": "uint256"
        }
      ],
      "payable": false,
      "stateMutability": "nonpayable",
      "type": "constructor"
    }
  ],
  "bytecode": "0x608060405234801561001057600080fd5b506040516020806100e7833981018060405281019080805190602001909291905050508060008190555050609e806100496000396000f300608060405260043610603f576000357c0100000000000000000000000000000000000000000000000000000000900463ffffffff16806318160ddd146044575b600080fd5b348015604f57600080fd5b506056606c565b6040518082815260200191505060405180910390f35b600054815600a165627a7a72305820d414319ab9ac8d9d9a9ec1656fe399b19bbaade55fbf6737fd76707a84946f250029",
  "source": "pragma solidity ^0.4.2;\r\n\r\ncontract DappToken{\r\n\t// constructor\r\n\t// set the token\r\n\t// read the total number of token\r\n\r\n\tuint256 public totalSupply;\r\n\r\n\tconstructor(uint _initialSupply) public{\r\n\t\ttotalSupply = _initialSupply;\r\n\t}\r\n}",
  "sourcePath": "F:\\Documents\\Solidity\\token_sale\\contracts\\DappToken.sol",
  "compiler": {
    "name": "solc",
    "version": "0.4.23+commit.124ca40d.Emscripten.clang"
  },
  "schemaVersion": "2.0.0",
  "updatedAt": "2018-05-08T04:43:02.246Z"
}