{
  "contractName": "DappToken",
  "abi": [
    {
      "constant": true,
      "inputs": [],
      "name": "totalSupply",
      "outputs": [
        {
          "name": "",
          "type": "uint256"
        }
      ],
      "payable": false,
      "stateMutability": "view",
      "type": "function"
    },
    {
      "inputs": [],
      "payable": false,
      "stateMutability": "nonpayable",
      "type": "constructor"
    }
  ],
  "bytecode": "0x608060405234801561001057600080fd5b50620186a0600081905550609e806100296000396000f300608060405260043610603f576000357c0100000000000000000000000000000000000000000000000000000000900463ffffffff16806318160ddd146044575b600080fd5b348015604f57600080fd5b506056606c565b6040518082815260200191505060405180910390f35b600054815600a165627a7a72305820602aaa08bda2165592df437f0a9324c4c1bb58d5405933aeaba5a5eabc06a6880029",
  "source": "pragma solidity ^0.4.2;\r\n\r\ncontract DappToken{\r\n\t// constructor\r\n\t// set the token\r\n\t// read the total number of token\r\n\r\n\tuint256 public totalSupply;\r\n\r\n\tconstructor() public{\r\n\t\ttotalSupply = 100000; //state variable, like a class variable\r\n\t}\r\n}",
  "sourcePath": "F:\\Documents\\Solidity\\token_sale\\contracts\\DappToken.sol",
  "compiler": {
    "name": "solc",
    "version": "0.4.23+commit.124ca40d.Emscripten.clang"
  },
  "schemaVersion": "2.0.0",
  "updatedAt": "2018-05-08T03:51:29.880Z"
}